:1000000012C02AC029C028C027C0A5C09AC046C0B7
:1000100023C022C021C020C01FC01EC01DC01CC0E4
:100020001BC01AC019C011241FBECFEDCDBF10E0F8
:10003000A0E6B0E0E2EAF1E002C005900D92A2363F
:10004000B107D9F710E0A2E6B0E001C01D92A736D3
:10005000B107E1F78AD0A3C0D3CF83E083BF8EBDC1
:1000600082E889BF089580E886BD16BC83E08ABB1C
:100070008BBB8FEF87BB18BA11BA8CE782BB15BE5A
:1000800008951BB888E98AB986E083B912B889E176
:1000900089B908955D9BFECF8CB908951F920F9288
:1000A0000FB60F9211242F933F934F935F936F934B
:1000B0007F938F939F93AF93BF93EF93FF938CB1F5
:1000C00090E08133910571F482E5E4DF8DE0E2DFB9
:1000D0008AE0E0DF81E08093620010926300C798BD
:1000E000C69A1EC08233910571F48CE4D3DF8DE093
:1000F000D1DF8AE0CFDF81E08093620080936300EC
:10010000C698C79A0DC08333910551F483E5C2DFC9
:100110008DE0C0DF8AE0BEDFC698C798109262000B
:10012000FF91EF91BF91AF919F918F917F916F91CF
:100130005F914F913F912F910F900FBE0F901F90A5
:1001400018951F920F920FB60F9211240F900FBEA9
:100150000F901F9018951F920F920FB60F921124B7
:100160000F900FBE0F901F9018957DDF76DF89DF0F
:100170008FE490DF8BE68EDF81E28CDF8DE08ADF1B
:100180008AE088DF7894E2E6F0E0DF01129681E011
:10019000859BFECFC698C79810828C93F9CFF894B0
:0201A000FFCF8F
:0201A2008025B6
:00000001FF
