:1000000012C02AC029C028C027C08CC081C046C0E9
:1000100023C022C021C020C01FC01EC01DC01CC0E4
:100020001BC01AC019C011241FBECFEDCDBF10E0F8
:10003000A0E6B0E0EAE5F1E002C005900D92A2363C
:10004000B107D9F710E0A2E6B0E001C01D92A236D8
:10005000B107E1F771D07FC0D3CF83E083BF8EBDFE
:1000600082E889BF089580E886BD16BC83E08ABB1C
:100070008BBB8FEF87BB18BA11BA8CE782BB15BE5A
:1000800008951BB888E98AB986E083B912B889E176
:1000900089B908955D9BFECF8CB908951F920F9288
:1000A0000FB60F9211242F933F934F935F936F934B
:1000B0007F938F939F93AF93BF93EF93FF9388B3F7
:1000C000809588BB8CB190E08133910539F482E54D
:1000D000E1DF8DE0DFDF8AE0DDDF09C082339105FB
:1000E00031F48CE4D7DF8DE0D5DF8AE0D3DFFF91F8
:1000F000EF91BF91AF919F918F917F916F915F91A0
:100100004F913F912F910F900FBE0F901F90189518
:100110001F920F920FB60F9211240F900FBE0F90E7
:100120001F9018951F920F920FB60F9211240F90E7
:100130000FBE0F901F90189596DF8FDFA2DF8FE420
:10014000A9DF8BE6A7DF81E2A5DF8DE0A3DF8AE0F0
:0A015000A1DF7894FFCFF894FFCFF1
:02015A008025FE
:00000001FF
