:1000000012C02AC029C028C027C0D0C09FC046C087
:1000100023C022C021C020C01FC01EC01DC01CC0E4
:100020001BC01AC019C011241FBECFEDCDBF10E0F8
:10003000A0E6B0E0EEECF1E002C005900D92A03633
:10004000B107D9F710E0A0E6B0E001C01D92A636D6
:10005000B107E1F7B5D0B9C0D3CF83E083BF8EBD80
:1000600082E889BF08951BB888E98AB986E083B918
:1000700012B889E189B9089580E886BD16BC83E08D
:100080008ABB8BBB8FEF87BB18BA11BA8CE782BBD8
:1000900015BE08955D9BFECF8CB908951F920F92F7
:1000A0000FB60F9211242F933F934F935F936F934B
:1000B0007F938F939F93AF93BF93EF93FF938CB1F5
:1000C00090E08133910581F482E5E4DF8DE0E2DFA9
:1000D0008AE0E0DF81E08093630010926400C798BB
:1000E000C69A1092650020C08233910581F48CE499
:1000F000D1DF8DE0CFDF8AE0CDDF81E08093630048
:1001000080936400C698C79A109265000DC083332F
:10011000910551F483E5BEDF8DE0BCDF8AE0BADFF4
:10012000C698C798109263001CB8FF91EF91BF91D9
:10013000AF919F918F917F916F915F914F913F917F
:100140002F910F900FBE0F901F9018951F920F9236
:100150000FB60F9211248F9380E882BF85990FC04C
:1001600080916300882359F080916400882339F4DA
:10017000C698C7981092630081E0809365008699C5
:100180000FC080916300882359F080916400882318
:1001900039F0C698C7981092630082E0809365009A
:1001A0008F910F900FBE0F901F9018951F920F9276
:1001B0000FB60F9211240F900FBE0F901F9018953D
:0E01C0005BDF4BDF50DF7894FFCFF894FFCF6A
:00000001FF
