:1000000012C02AC029C028C027C079C190C042C0F0
:1000100023C022C021C020C01FC01EC01DC01CC0E4
:100020001BC01AC019C011241FBECFEDCDBF10E0F8
:10003000A0E6B0E0E0E4F6E002C005900D92A03644
:10004000B107D9F710E0A0E6B0E001C01D92A137DA
:10005000B107E1F7EED2F2C2D3CF83E083BF8EBD0A
:1000600082E889BF08951BB888E98AB986E083B918
:1000700012B889E189B9089580E886BD16BC83E08D
:100080008ABB8BBB8FEF87BB18BA11BA8CE782BBD8
:1000900015BE08951F920F920FB60F9211248F93E1
:1000A0009F938CB190E08033910561F4C698C79816
:1000B00010926A0010926400C498C098C198C298C7
:1000C000C39819C08133910551F481E080936A008F
:1000D00010926B00C798C69A10926C000CC08233C5
:1000E000910549F481E080936A0080936B00C69883
:1000F000C79A10926C001CB89F918F910F900FBE01
:100100000F901F9018955D9BFECF8CB908951092AB
:1001100061001092600010926400C498C098C19869
:10012000C298C398109263001092620008951F92C3
:100130000F920FB60F9211242F938F939F9380E805
:1001400082BF8299CEC080916A00882309F0C9C01D
:1001500080916400882309F0C4C081E080936D0021
:1001600080916E0090916F002FE78E3F92078CF583
:10017000019690936F0080936E002BC080916A006F
:10018000882339F580916400882319F580916D00EA
:100190008823A9F080916E0090916F0021E0853F47
:1001A000920754F081E080936A0010926B00C79828
:1001B000C69A10926C0003C081E080936300109295
:1001C0006D0080917000882321F410926F001092CE
:1001D0006E00839989C080916A00882309F084C0E9
:1001E00080916400882309F07FC081E080937000D3
:1001F00080916E0090916F002FE78E3F92078CF5F3
:10020000019690936F0080936E002BC080916A00DE
:10021000882339F580916400882319F58091700056
:100220008823A9F080916E0090916F0021E0853FB6
:10023000920754F081E080936A0080936B00C69827
:10024000C79A10926C0003C081E080936200109204
:10025000700080916D00882321F410926F0010923D
:100260006E0085990FC080916A00882359F08091B3
:100270006B00882339F4C698C79810926A0081E011
:1002800080936C0086990FC080916A00882359F092
:1002900080916B00882339F0C698C79810926A0045
:1002A00082E080936C00849922C0C698C79810920F
:1002B0006A0010926400C498C098C198C298C3980C
:1002C00010926D0010927000109263001092620004
:1002D00010926F0010926E001092610010926000F8
:1002E00006C082994BCF75CF839990CFBACF9F919B
:1002F0008F912F910F900FBE0F901F9018951F9206
:100300000F920FB60F9211242F933F934F935F9349
:100310006F937F938F939F93AF93BF93EF93FF93CD
:1003200080916300882309F4B7C0209167002330CF
:1003300008F0B1C080916000909161008530910516
:100340000CF0A6C0019690936100809360008091AC
:100350006800909169008738910509F450C0883889
:1003600091054CF48D32910561F18A359105C1F109
:100370000097C1F091C0813E910509F45EC0823EB4
:1003800091052CF4843B910509F086C047C021E01B
:100390008E30920709F460C021E08B33920709F098
:1003A0007BC069C081E0809364008DE290E090930F
:1003B000690080936800C49AC098C198C298C39A93
:1003C0006BC081E0809364008AE590E090936900BF
:1003D00080936800C49AC098C198C29AC39A5CC0BE
:1003E00081E08093640087E890E0909369008093B7
:1003F0006800C49AC098C198C29AC3984DC081E061
:100400008093640084EB90E090936900809368008F
:10041000C49AC098C19AC29AC3983EC081E08093A2
:10042000640081EE90E09093690080936800C49A24
:10043000C098C19AC298C3982FC081E0809364008D
:100440008EE091E09093690080936800C49AC09A0E
:10045000C19AC298C39820C081E0809364008BE366
:1004600091E09093690080936800C49AC09AC19803
:10047000C298C39811C081E0809364001092690013
:1004800010926800C49AC09AC198C298C39A04C0D6
:100490002F5F209367003BDE80916200882309F480
:1004A000B7C020916700222309F4B1C08091600099
:1004B00090916100853091050CF0A6C00196909353
:1004C0006100809360008091680090916900873896
:1004D000910509F44EC0883891054CF48D32910590
:1004E00061F18A359105B1F10097C1F091C0813E6B
:1004F000910509F45CC0823E91052CF4843B910582
:1005000009F086C045C021E08E30920709F45EC034
:1005100021E08B33920709F07BC067C081E08093B4
:1005200064008BE391E09093690080936800C49A23
:10053000C09AC198C298C3986BC081E08093640050
:100540001092690010926800C49AC09AC198C2982B
:10055000C39A5EC081E0809364008DE290E0909346
:10056000690080936800C49AC098C198C298C39AE1
:100570004FC081E0809364008AE590E09093690029
:1005800080936800C49AC098C198C29AC39A40C028
:1005900081E08093640087E890E090936900809305
:1005A0006800C49AC098C198C29AC39831C081E0CB
:1005B0008093640084EB90E09093690080936800DE
:1005C000C49AC098C19AC29AC39822C081E080930D
:1005D000640081EE90E09093690080936800C49A73
:1005E000C098C19AC298C39813C081E080936400F8
:1005F0008EE091E09093690080936800C49AC09A5D
:10060000C19AC298C39804C02150209367007FDD2F
:10061000FF91EF91BF91AF919F918F917F916F91DA
:100620005F914F913F912F910F900FBE0F901F90B0
:10063000189522DD12DD17DD7894FFCFF894FFCFF7
:00000001FF
