:1000000012C02AC029C028C027C026C025C024C0CD
:1000100023C022C021C020C01FC01EC01DC01CC0E4
:100020001BC01AC019C011241FBECFEDCDBF10E0F8
:10003000A0E6B0E0E4ECF0E002C005900D92A0363E
:10004000B107D9F710E0A0E6B0E001C01D92A036DC
:10005000B107E1F72DD034C0D3CF80E886BD16BC00
:1000600093E09ABB9BBB9FEF97BB18BA11BA9FE76F
:1000700092BB10BE13BE12BE16BE1CBE1FBC1EBC61
:100080001DBC1CBC15BC14BC1BBC1ABC19BC18BCC8
:1000900092E899BF1BBE15BE1DB81BB898E19AB96E
:1000A00096E093B912B899E199B988B911B8089551
:1000B000D4DF81E1829B02C018BAFCCF88BBFACFA3
:0400C000F894FFCFE2
:00000001FF
