:1000000012C02AC029C028C027C04DC042C024C089
:1000100023C022C021C020C01FC01EC01DC01CC0E4
:100020001BC01AC019C011241FBECFEDCDBF10E0F8
:10003000A0E6B0E0E6ECF0E002C005900D92A0363C
:10004000B107D9F710E0A0E6B0E001C01D92A036DC
:10005000B107E1F732D035C0D3CF83E083BF8EBD87
:1000600082E889BF089580E886BD16BC83E08ABB1C
:100070008BBB8FEF87BB18BA11BA8FE782BB15BE57
:1000800083E389B912B81BB888E98AB986E083B9D5
:1000900008951F920F920FB60F9211240F900FBE6A
:1000A0000F901F9018951F920F920FB60F92112468
:1000B0000F900FBE0F901F901895D5DFCEDF78946C
:0600C000FFCFF894FFCF12
:00000001FF
