:1000000012C058C029C028C027C026C025C024C09F
:1000100023C022C021C020C01FC01EC01DC01CC0E4
:100020001BC01AC019C011241FBECFEDCDBF10E0F8
:10003000A0E6B0E0EEEEF0E002C005900D92A03632
:10004000B107D9F710E0A0E6B0E001C01D92A036DC
:10005000B107E1F73BD049C0D3CF80E886BD16BCDD
:1000600083E08ABB8BBB9FEF97BB18BA11BA9FE79F
:1000700092BB82BF9BB792609BBF92E090BF95E01E
:1000800093BF86BF8CE08CBF1FBC1EBC1DBC1CBCBC
:1000900015BC14BC1BBC1ABC19BC18BC82E889BFB7
:1000A00015BE83E389B912B81BB888E98AB986E01E
:1000B00083B908951F920F920FB60F921124C49A1C
:1000C000C09A0F900FBE0F901F901895C6DF80E466
:1000D0008BBF82E085BF12BE7894829903C0C49A18
:0E00E000C09AFBCFC498C098F8CFF894FFCF19
:00000001FF
